{"abi":[{"type":"constructor","inputs":[{"name":"_marketcreator","type":"address","internalType":"address"},{"name":"_marketconfig","type":"uint256","internalType":"uint256"}],"stateMutability":"nonpayable"},{"type":"function","name":"addbanlist","inputs":[{"name":"_user","type":"address","internalType":"address"}],"outputs":[{"name":"","type":"bool","internalType":"bool"}],"stateMutability":"nonpayable"},{"type":"function","name":"addreferer","inputs":[{"name":"_referer","type":"address","internalType":"address"}],"outputs":[{"name":"is_success_","type":"bool","internalType":"bool"}],"stateMutability":"nonpayable"},{"type":"function","name":"approve","inputs":[{"name":"to","type":"address","internalType":"address"},{"name":"proofId","type":"uint256","internalType":"uint256"}],"outputs":[],"stateMutability":"nonpayable"},{"type":"function","name":"balanceOf","inputs":[{"name":"owner","type":"address","internalType":"address"}],"outputs":[{"name":"","type":"uint256","internalType":"uint256"}],"stateMutability":"view"},{"type":"function","name":"banlist","inputs":[{"name":"","type":"address","internalType":"address"}],"outputs":[{"name":"","type":"uint256","internalType":"uint256"}],"stateMutability":"view"},{"type":"function","name":"buyGood","inputs":[{"name":"_goodid1","type":"uint256","internalType":"uint256"},{"name":"_goodid2","type":"uint256","internalType":"uint256"},{"name":"_swapQuanitity","type":"uint128","internalType":"uint128"},{"name":"_limitPrice","type":"uint256","internalType":"uint256"},{"name":"_istotal","type":"bool","internalType":"bool"},{"name":"_gater","type":"address","internalType":"address"}],"outputs":[{"name":"goodid2Quanitity_","type":"uint128","internalType":"uint128"},{"name":"goodid2FeeQuanitity_","type":"uint128","internalType":"uint128"}],"stateMutability":"nonpayable"},{"type":"function","name":"buyGoodForPay","inputs":[{"name":"_goodid1","type":"uint256","internalType":"uint256"},{"name":"_goodid2","type":"uint256","internalType":"uint256"},{"name":"_swapQuanitity","type":"uint128","internalType":"uint128"},{"name":"_limitPrice","type":"uint256","internalType":"uint256"},{"name":"_recipent","type":"address","internalType":"address"},{"name":"_gater","type":"address","internalType":"address"}],"outputs":[{"name":"goodid1Quanitity_","type":"uint128","internalType":"uint128"},{"name":"goodid1FeeQuanitity_","type":"uint128","internalType":"uint128"}],"stateMutability":"nonpayable"},{"type":"function","name":"changeGoodOwner","inputs":[{"name":"_goodid","type":"uint256","internalType":"uint256"},{"name":"_to","type":"address","internalType":"address"}],"outputs":[{"name":"","type":"bool","internalType":"bool"}],"stateMutability":"nonpayable"},{"type":"function","name":"changeProofOwner","inputs":[{"name":"_proofid","type":"uint256","internalType":"uint256"},{"name":"_to","type":"address","internalType":"address"}],"outputs":[{"name":"","type":"bool","internalType":"bool"}],"stateMutability":"nonpayable"},{"type":"function","name":"check_banlist","inputs":[{"name":"_user","type":"address","internalType":"address"}],"outputs":[{"name":"_isban","type":"bool","internalType":"bool"}],"stateMutability":"view"},{"type":"function","name":"collectNormalProofFee","inputs":[{"name":"_normalProofid","type":"uint256","internalType":"uint256"}],"outputs":[{"name":"profit","type":"uint256","internalType":"T_BalanceUINT256"}],"stateMutability":"nonpayable"},{"type":"function","name":"collectProtocolFee","inputs":[{"name":"_goodid","type":"uint256","internalType":"uint256"}],"outputs":[{"name":"","type":"uint256","internalType":"uint256"}],"stateMutability":"nonpayable"},{"type":"function","name":"collectValueProofFee","inputs":[{"name":"_valueProofid","type":"uint256","internalType":"uint256"}],"outputs":[{"name":"profit","type":"uint128","internalType":"uint128"}],"stateMutability":"nonpayable"},{"type":"function","name":"customerno","inputs":[{"name":"","type":"address","internalType":"address"}],"outputs":[{"name":"","type":"uint256","internalType":"uint256"}],"stateMutability":"view"},{"type":"function","name":"customernum","inputs":[],"outputs":[{"name":"","type":"uint256","internalType":"uint256"}],"stateMutability":"view"},{"type":"function","name":"disinvestNormalGood","inputs":[{"name":"_togood","type":"uint256","internalType":"uint256"},{"name":"_valuegood","type":"uint256","internalType":"uint256"},{"name":"_goodQuanitity","type":"uint128","internalType":"uint128"},{"name":"_gater","type":"address","internalType":"address"}],"outputs":[{"name":"disinvestNormalResult1_","type":"tuple","internalType":"struct L_Good.S_GoodDisinvestReturn","components":[{"name":"profit","type":"uint128","internalType":"uint128"},{"name":"actual_fee","type":"uint128","internalType":"uint128"},{"name":"actualDisinvestValue","type":"uint128","internalType":"uint128"},{"name":"actualDisinvestQuantity","type":"uint128","internalType":"uint128"}]},{"name":"disinvestValueResult2_","type":"tuple","internalType":"struct L_Good.S_GoodDisinvestReturn","components":[{"name":"profit","type":"uint128","internalType":"uint128"},{"name":"actual_fee","type":"uint128","internalType":"uint128"},{"name":"actualDisinvestValue","type":"uint128","internalType":"uint128"},{"name":"actualDisinvestQuantity","type":"uint128","internalType":"uint128"}]}],"stateMutability":"nonpayable"},{"type":"function","name":"disinvestNormalProof","inputs":[{"name":"_normalProof","type":"uint256","internalType":"uint256"},{"name":"_goodQuanitity","type":"uint128","internalType":"uint128"},{"name":"_gater","type":"address","internalType":"address"}],"outputs":[{"name":"disinvestNormalResult1_","type":"tuple","internalType":"struct L_Good.S_GoodDisinvestReturn","components":[{"name":"profit","type":"uint128","internalType":"uint128"},{"name":"actual_fee","type":"uint128","internalType":"uint128"},{"name":"actualDisinvestValue","type":"uint128","internalType":"uint128"},{"name":"actualDisinvestQuantity","type":"uint128","internalType":"uint128"}]},{"name":"disinvestValueResult2_","type":"tuple","internalType":"struct L_Good.S_GoodDisinvestReturn","components":[{"name":"profit","type":"uint128","internalType":"uint128"},{"name":"actual_fee","type":"uint128","internalType":"uint128"},{"name":"actualDisinvestValue","type":"uint128","internalType":"uint128"},{"name":"actualDisinvestQuantity","type":"uint128","internalType":"uint128"}]}],"stateMutability":"nonpayable"},{"type":"function","name":"disinvestValueGood","inputs":[{"name":"_goodid","type":"uint256","internalType":"uint256"},{"name":"_goodQuanitity","type":"uint128","internalType":"uint128"},{"name":"_gater","type":"address","internalType":"address"}],"outputs":[{"name":"disinvestResult_","type":"tuple","internalType":"struct L_Good.S_GoodDisinvestReturn","components":[{"name":"profit","type":"uint128","internalType":"uint128"},{"name":"actual_fee","type":"uint128","internalType":"uint128"},{"name":"actualDisinvestValue","type":"uint128","internalType":"uint128"},{"name":"actualDisinvestQuantity","type":"uint128","internalType":"uint128"}]}],"stateMutability":"nonpayable"},{"type":"function","name":"disinvestValueProof","inputs":[{"name":"_valueproofid","type":"uint256","internalType":"uint256"},{"name":"_goodQuanitity","type":"uint128","internalType":"uint128"},{"name":"_gater","type":"address","internalType":"address"}],"outputs":[{"name":"disinvestResult_","type":"tuple","internalType":"struct L_Good.S_GoodDisinvestReturn","components":[{"name":"profit","type":"uint128","internalType":"uint128"},{"name":"actual_fee","type":"uint128","internalType":"uint128"},{"name":"actualDisinvestValue","type":"uint128","internalType":"uint128"},{"name":"actualDisinvestQuantity","type":"uint128","internalType":"uint128"}]}],"stateMutability":"nonpayable"},{"type":"function","name":"getApproved","inputs":[{"name":"proofId","type":"uint256","internalType":"uint256"}],"outputs":[{"name":"","type":"address","internalType":"address"}],"stateMutability":"view"},{"type":"function","name":"getGoodIdByAddress","inputs":[{"name":"_owner","type":"address","internalType":"address"},{"name":"_key","type":"uint256","internalType":"uint256"}],"outputs":[{"name":"","type":"uint256","internalType":"uint256"}],"stateMutability":"view"},{"type":"function","name":"getGoodState","inputs":[{"name":"_goodid","type":"uint256","internalType":"uint256"}],"outputs":[{"name":"good_","type":"tuple","internalType":"struct L_Good.S_GoodTmpState","components":[{"name":"goodConfig","type":"uint256","internalType":"uint256"},{"name":"owner","type":"address","internalType":"address"},{"name":"erc20address","type":"address","internalType":"address"},{"name":"currentState","type":"uint256","internalType":"T_BalanceUINT256"},{"name":"investState","type":"uint256","internalType":"T_BalanceUINT256"},{"name":"feeQunitityState","type":"uint256","internalType":"T_BalanceUINT256"}]}],"stateMutability":"view"},{"type":"function","name":"getGoodsFee","inputs":[{"name":"_goodid","type":"uint256","internalType":"uint256"},{"name":"user","type":"address","internalType":"address"}],"outputs":[{"name":"","type":"uint256","internalType":"uint256"}],"stateMutability":"view"},{"type":"function","name":"getProofId","inputs":[{"name":"_investproofkey","type":"tuple","internalType":"struct S_ProofKey","components":[{"name":"owner","type":"address","internalType":"address"},{"name":"currentgood","type":"uint256","internalType":"uint256"},{"name":"valuegood","type":"uint256","internalType":"uint256"}]}],"outputs":[{"name":"proof_","type":"uint256","internalType":"uint256"}],"stateMutability":"view"},{"type":"function","name":"getProofState","inputs":[{"name":"_proof","type":"uint256","internalType":"uint256"}],"outputs":[{"name":"proof_","type":"tuple","internalType":"struct L_Proof.S_ProofState","components":[{"name":"owner","type":"address","internalType":"address"},{"name":"currentgood","type":"uint256","internalType":"uint256"},{"name":"valuegood","type":"uint256","internalType":"uint256"},{"name":"state","type":"uint256","internalType":"T_BalanceUINT256"},{"name":"invest","type":"uint256","internalType":"T_BalanceUINT256"},{"name":"valueinvest","type":"uint256","internalType":"T_BalanceUINT256"},{"name":"approval","type":"address","internalType":"address"},{"name":"beneficiary","type":"address","internalType":"address"}]}],"stateMutability":"view"},{"type":"function","name":"goodnum","inputs":[],"outputs":[{"name":"","type":"uint256","internalType":"uint256"}],"stateMutability":"view"},{"type":"function","name":"goodseq","inputs":[{"name":"","type":"bytes32","internalType":"bytes32"}],"outputs":[{"name":"","type":"uint256","internalType":"uint256"}],"stateMutability":"view"},{"type":"function","name":"initMetaGood","inputs":[{"name":"_erc20address","type":"address","internalType":"address"},{"name":"_initial","type":"uint256","internalType":"T_BalanceUINT256"},{"name":"_goodConfig","type":"uint256","internalType":"uint256"}],"outputs":[{"name":"","type":"uint256","internalType":"uint256"},{"name":"","type":"uint256","internalType":"uint256"}],"stateMutability":"nonpayable"},{"type":"function","name":"initNormalGood","inputs":[{"name":"_valuegood","type":"uint256","internalType":"uint256"},{"name":"_initial","type":"uint256","internalType":"T_BalanceUINT256"},{"name":"_erc20address","type":"address","internalType":"address"},{"name":"_goodConfig","type":"uint256","internalType":"uint256"},{"name":"_gater","type":"address","internalType":"address"}],"outputs":[{"name":"","type":"uint256","internalType":"uint256"},{"name":"","type":"uint256","internalType":"uint256"}],"stateMutability":"nonpayable"},{"type":"function","name":"investNormalGood","inputs":[{"name":"_togood","type":"uint256","internalType":"uint256"},{"name":"_valuegood","type":"uint256","internalType":"uint256"},{"name":"_quanitity","type":"uint128","internalType":"uint128"},{"name":"_gater","type":"address","internalType":"address"}],"outputs":[{"name":"normalInvest","type":"tuple","internalType":"struct L_Good.S_GoodInvestReturn","components":[{"name":"actualFeeQuantity","type":"uint128","internalType":"uint128"},{"name":"contructFeeQuantity","type":"uint128","internalType":"uint128"},{"name":"actualInvestValue","type":"uint128","internalType":"uint128"},{"name":"actualInvestQuantity","type":"uint128","internalType":"uint128"}]},{"name":"valueInvest","type":"tuple","internalType":"struct L_Good.S_GoodInvestReturn","components":[{"name":"actualFeeQuantity","type":"uint128","internalType":"uint128"},{"name":"contructFeeQuantity","type":"uint128","internalType":"uint128"},{"name":"actualInvestValue","type":"uint128","internalType":"uint128"},{"name":"actualInvestQuantity","type":"uint128","internalType":"uint128"}]}],"stateMutability":"nonpayable"},{"type":"function","name":"investValueGood","inputs":[{"name":"_goodid","type":"uint256","internalType":"uint256"},{"name":"_goodQuanitity","type":"uint128","internalType":"uint128"},{"name":"_gater","type":"address","internalType":"address"}],"outputs":[{"name":"valueInvest_","type":"tuple","internalType":"struct L_Good.S_GoodInvestReturn","components":[{"name":"actualFeeQuantity","type":"uint128","internalType":"uint128"},{"name":"contructFeeQuantity","type":"uint128","internalType":"uint128"},{"name":"actualInvestValue","type":"uint128","internalType":"uint128"},{"name":"actualInvestQuantity","type":"uint128","internalType":"uint128"}]}],"stateMutability":"nonpayable"},{"type":"function","name":"isApprovedForAll","inputs":[{"name":"owner","type":"address","internalType":"address"},{"name":"operator","type":"address","internalType":"address"}],"outputs":[{"name":"","type":"bool","internalType":"bool"}],"stateMutability":"view"},{"type":"function","name":"marketconfig","inputs":[],"outputs":[{"name":"","type":"uint256","internalType":"uint256"}],"stateMutability":"view"},{"type":"function","name":"marketcreator","inputs":[],"outputs":[{"name":"","type":"address","internalType":"address"}],"stateMutability":"view"},{"type":"function","name":"multicall","inputs":[{"name":"data","type":"bytes[]","internalType":"bytes[]"}],"outputs":[{"name":"results","type":"bytes[]","internalType":"bytes[]"}],"stateMutability":"payable"},{"type":"function","name":"name","inputs":[],"outputs":[{"name":"","type":"string","internalType":"string"}],"stateMutability":"pure"},{"type":"function","name":"ownerOf","inputs":[{"name":"proofId","type":"uint256","internalType":"uint256"}],"outputs":[{"name":"","type":"address","internalType":"address"}],"stateMutability":"view"},{"type":"function","name":"ownergoods","inputs":[{"name":"","type":"address","internalType":"address"}],"outputs":[{"name":"key","type":"uint256","internalType":"uint256"}],"stateMutability":"view"},{"type":"function","name":"ownerproofs","inputs":[{"name":"","type":"address","internalType":"address"}],"outputs":[{"name":"key","type":"uint256","internalType":"uint256"}],"stateMutability":"view"},{"type":"function","name":"payGood","inputs":[{"name":"_goodid","type":"uint256","internalType":"uint256"},{"name":"_payquanity","type":"uint256","internalType":"uint256"},{"name":"_recipent","type":"address","internalType":"address"}],"outputs":[{"name":"","type":"bool","internalType":"bool"}],"stateMutability":"nonpayable"},{"type":"function","name":"proofs","inputs":[{"name":"","type":"uint256","internalType":"uint256"}],"outputs":[{"name":"owner","type":"address","internalType":"address"},{"name":"currentgood","type":"uint256","internalType":"uint256"},{"name":"valuegood","type":"uint256","internalType":"uint256"},{"name":"state","type":"uint256","internalType":"T_BalanceUINT256"},{"name":"invest","type":"uint256","internalType":"T_BalanceUINT256"},{"name":"valueinvest","type":"uint256","internalType":"T_BalanceUINT256"},{"name":"approval","type":"address","internalType":"address"},{"name":"beneficiary","type":"address","internalType":"address"}],"stateMutability":"view"},{"type":"function","name":"proofseq","inputs":[{"name":"","type":"bytes32","internalType":"bytes32"}],"outputs":[{"name":"","type":"uint256","internalType":"uint256"}],"stateMutability":"view"},{"type":"function","name":"relations","inputs":[{"name":"","type":"address","internalType":"address"}],"outputs":[{"name":"","type":"address","internalType":"address"}],"stateMutability":"view"},{"type":"function","name":"removebanlist","inputs":[{"name":"_user","type":"address","internalType":"address"}],"outputs":[{"name":"","type":"bool","internalType":"bool"}],"stateMutability":"nonpayable"},{"type":"function","name":"safeTransferFrom","inputs":[{"name":"from","type":"address","internalType":"address"},{"name":"to","type":"address","internalType":"address"},{"name":"proofid","type":"uint256","internalType":"uint256"}],"outputs":[],"stateMutability":"nonpayable"},{"type":"function","name":"safeTransferFrom","inputs":[{"name":"from","type":"address","internalType":"address"},{"name":"to","type":"address","internalType":"address"},{"name":"tokenId","type":"uint256","internalType":"uint256"},{"name":"data","type":"bytes","internalType":"bytes"}],"outputs":[],"stateMutability":"nonpayable"},{"type":"function","name":"setApprovalForAll","inputs":[{"name":"operator","type":"address","internalType":"address"},{"name":"approved","type":"bool","internalType":"bool"}],"outputs":[],"stateMutability":"nonpayable"},{"type":"function","name":"setMarketConfig","inputs":[{"name":"_marketconfig","type":"uint256","internalType":"uint256"}],"outputs":[{"name":"","type":"bool","internalType":"bool"}],"stateMutability":"nonpayable"},{"type":"function","name":"supportsInterface","inputs":[{"name":"interfaceId","type":"bytes4","internalType":"bytes4"}],"outputs":[{"name":"","type":"bool","internalType":"bool"}],"stateMutability":"view"},{"type":"function","name":"symbol","inputs":[],"outputs":[{"name":"","type":"string","internalType":"string"}],"stateMutability":"pure"},{"type":"function","name":"tokenByIndex","inputs":[{"name":"_index","type":"uint256","internalType":"uint256"}],"outputs":[{"name":"","type":"uint256","internalType":"uint256"}],"stateMutability":"pure"},{"type":"function","name":"tokenOfOwnerByIndex","inputs":[{"name":"_owner","type":"address","internalType":"address"},{"name":"_index","type":"uint256","internalType":"uint256"}],"outputs":[{"name":"","type":"uint256","internalType":"uint256"}],"stateMutability":"view"},{"type":"function","name":"tokenURI","inputs":[{"name":"proofId","type":"uint256","internalType":"uint256"}],"outputs":[{"name":"","type":"string","internalType":"string"}],"stateMutability":"view"},{"type":"function","name":"totalSupply","inputs":[],"outputs":[{"name":"","type":"uint256","internalType":"uint256"}],"stateMutability":"view"},{"type":"function","name":"transferFrom","inputs":[{"name":"from","type":"address","internalType":"address"},{"name":"to","type":"address","internalType":"address"},{"name":"proofid","type":"uint256","internalType":"uint256"}],"outputs":[],"stateMutability":"nonpayable"},{"type":"function","name":"updateGoodConfig","inputs":[{"name":"_goodid","type":"uint256","internalType":"uint256"},{"name":"_goodConfig","type":"uint256","internalType":"uint256"}],"outputs":[{"name":"","type":"bool","internalType":"bool"}],"stateMutability":"nonpayable"},{"type":"function","name":"updatetoNormalGood","inputs":[{"name":"_goodid","type":"uint256","internalType":"uint256"}],"outputs":[{"name":"","type":"bool","internalType":"bool"}],"stateMutability":"nonpayable"},{"type":"function","name":"updatetoValueGood","inputs":[{"name":"_goodid","type":"uint256","internalType":"uint256"}],"outputs":[{"name":"","type":"bool","internalType":"bool"}],"stateMutability":"nonpayable"},{"type":"event","name":"Approval","inputs":[{"name":"owner","type":"address","indexed":true,"internalType":"address"},{"name":"approved","type":"address","indexed":true,"internalType":"address"},{"name":"tokenId","type":"uint256","indexed":true,"internalType":"uint256"}],"anonymous":false},{"type":"event","name":"ApprovalForAll","inputs":[{"name":"owner","type":"address","indexed":true,"internalType":"address"},{"name":"operator","type":"address","indexed":true,"internalType":"address"},{"name":"approved","type":"bool","indexed":false,"internalType":"bool"}],"anonymous":false},{"type":"event","name":"Transfer","inputs":[{"name":"from","type":"address","indexed":true,"internalType":"address"},{"name":"to","type":"address","indexed":true,"internalType":"address"},{"name":"tokenId","type":"uint256","indexed":true,"internalType":"uint256"}],"anonymous":false},{"type":"event","name":"e_buyGood","inputs":[{"name":"sellgood","type":"uint256","indexed":true,"internalType":"uint256"},{"name":"forgood","type":"uint256","indexed":true,"internalType":"uint256"},{"name":"fromer","type":"address","indexed":false,"internalType":"address"},{"name":"swapvalue","type":"uint128","indexed":false,"internalType":"uint128"},{"name":"sellgoodstate","type":"uint256","indexed":false,"internalType":"T_BalanceUINT256"},{"name":"forgoodstate","type":"uint256","indexed":false,"internalType":"T_BalanceUINT256"}],"anonymous":false},{"type":"event","name":"e_buyGoodForPay","inputs":[{"name":"buygood","type":"uint256","indexed":true,"internalType":"uint256"},{"name":"usegood","type":"uint256","indexed":true,"internalType":"uint256"},{"name":"fromer","type":"address","indexed":false,"internalType":"address"},{"name":"receipt","type":"address","indexed":false,"internalType":"address"},{"name":"swapvalue","type":"uint128","indexed":false,"internalType":"uint128"},{"name":"buygoodstate","type":"uint256","indexed":false,"internalType":"T_BalanceUINT256"},{"name":"usegoodstate","type":"uint256","indexed":false,"internalType":"T_BalanceUINT256"}],"anonymous":false},{"type":"event","name":"e_changeOwner","inputs":[{"name":"_goodid","type":"uint256","indexed":true,"internalType":"uint256"},{"name":"_owner","type":"address","indexed":false,"internalType":"address"},{"name":"_to","type":"address","indexed":false,"internalType":"address"}],"anonymous":false},{"type":"event","name":"e_proof","inputs":[{"name":"","type":"uint256","indexed":true,"internalType":"uint256"}],"anonymous":false},{"type":"error","name":"ERC20TransferFailed","inputs":[]},{"type":"error","name":"ERC721InvalidReceiver","inputs":[{"name":"receiver","type":"address","internalType":"address"}]},{"type":"error","name":"NativeTransferFailed","inputs":[]},{"type":"error","name":"err_total","inputs":[]}],"bytecode":{"object":"0x60806040523480156200001157600080fd5b50604051620066963803806200669683398101604081905262000034916200005e565b600580546001600160a01b0319166001600160a01b0393909316929092179091556003556200009a565b600080604083850312156200007257600080fd5b82516001600160a01b03811681146200008a57600080fd5b6020939093015192949293505050565b6165ec80620000aa6000396000f3fe6080604052600436106103815760003560e01c80637b43e738116101d1578063a92a1bc911610102578063c3a2b159116100a0578063d756d4b71161006f578063d756d4b714610d49578063e1f685e814610d76578063e985e9c514610d96578063fc5f8dd014610ddf57600080fd5b8063c3a2b15914610caf578063c87b56dd14610cdc578063cb9a748d14610cfc578063cbb2aabc14610d2957600080fd5b8063b153b920116100dc578063b153b92014610c2f578063b88d4fde14610c4f578063c138f7a914610c6f578063c16b80fe14610c8f57600080fd5b8063a92a1bc914610bcf578063ac9650d814610bef578063ad864a7914610c0f57600080fd5b80639c7b91401161016f578063a22cb46511610149578063a22cb46514610ad9578063a4500ff314610af9578063a64d6c9c14610b27578063a6f6a98014610b5457600080fd5b80639c7b9140146109e05780639caa637b14610a005780639ddaf5aa14610a2057600080fd5b80639551177a116101ab5780639551177a1461093f57806395d89b411461095f57806397924ead1461098b57806399e23fc2146109c057600080fd5b80637b43e738146108df5780638bdde5d3146108ff578063920acbb81461091f57600080fd5b80633d995173116102b657806345818e4c11610254578063578496ab11610223578063578496ab1461081d5780636352211e1461085d5780636ab107f91461089357806370a08231146108a957600080fd5b806345818e4c1461076c57806345de65f01461078c5780634f6ccce7146107b957806356b7d94c146107d757600080fd5b806340430a491161029057806340430a49146106d157806342842e0e146106e757806342ff43b114610707578063430b9be71461073f57600080fd5b80633d9951731461060b5780633f1177401461062b578063402f5ab5146106bb57600080fd5b8063144aeb831161032357806323b872dd116102fd57806323b872dd146105575780632973ada7146105775780632a7c5a91146105a45780632f745c59146105c457600080fd5b8063144aeb83146104eb578063161ce5cb1461050b57806318160ddd1461054157600080fd5b8063081812fc1161035f578063081812fc14610438578063095ea7b3146104895780630a25dcff146104ab57806314484e10146104cb57600080fd5b806301ffc9a7146103865780630292eb4a146103bb57806306fdde03146103e9575b600080fd5b34801561039257600080fd5b506103a66103a1366004615bd1565b610dff565b60405190151581526020015b60405180910390f35b3480156103c757600080fd5b506103db6103d6366004615bee565b610e51565b6040519081526020016103b2565b3480156103f557600080fd5b5060408051808201909152600a81527f545453574150204e46540000000000000000000000000000000000000000000060208201525b6040516103b29190615c57565b34801561044457600080fd5b50610471610453366004615bee565b6000908152600c60205260409020600601546001600160a01b031690565b6040516001600160a01b0390911681526020016103b2565b34801561049557600080fd5b506104a96104a4366004615c81565b610f6f565b005b3480156104b757600080fd5b506103a66104c6366004615bee565b611052565b3480156104d757600080fd5b506103a66104e6366004615bee565b6110b4565b3480156104f757600080fd5b506103a6610506366004615cab565b61110e565b34801561051757600080fd5b50610471610526366004615ccd565b6002602052600090815260409020546001600160a01b031681565b34801561054d57600080fd5b506103db600b5481565b34801561056357600080fd5b506104a9610572366004615ce8565b61117e565b34801561058357600080fd5b506103db610592366004615ccd565b600a6020526000908152604090205481565b3480156105b057600080fd5b506103a66105bf366004615d24565b6112b3565b3480156105d057600080fd5b506103db6105df366004615c81565b6001600160a01b03919091166000908152600d6020908152604080832093835260019093019052205490565b34801561061757600080fd5b50600554610471906001600160a01b031681565b34801561063757600080fd5b5061064b610646366004615bee565b61135a565b6040516103b291906000610100820190506001600160a01b038084511683526020840151602084015260408401516040840152606084015160608401526080840151608084015260a084015160a08401528060c08501511660c08401528060e08501511660e08401525092915050565b3480156106c757600080fd5b506103db60035481565b3480156106dd57600080fd5b506103db60005481565b3480156106f357600080fd5b506104a9610702366004615ce8565b611418565b34801561071357600080fd5b50610727610722366004615bee565b611438565b6040516001600160801b0390911681526020016103b2565b34801561074b57600080fd5b506103db61075a366004615bee565b600e6020526000908152604090205481565b34801561077857600080fd5b506103a6610787366004615bee565b6115c7565b34801561079857600080fd5b506103db6107a7366004615ccd565b600d6020526000908152604090205481565b3480156107c557600080fd5b506103db6107d4366004615bee565b90565b3480156107e357600080fd5b506103db6107f2366004615d24565b60008281526006602081815260408084206001600160a01b0386168552909201905290205492915050565b34801561082957600080fd5b5061083d610838366004615d75565b61164e565b604080516001600160801b039384168152929091166020830152016103b2565b34801561086957600080fd5b50610471610878366004615bee565b6000908152600c60205260409020546001600160a01b031690565b34801561089f57600080fd5b506103db60045481565b3480156108b557600080fd5b506103db6108c4366004615ccd565b6001600160a01b03166000908152600d602052604090205490565b3480156108eb57600080fd5b5061083d6108fa366004615dd6565b611982565b34801561090b57600080fd5b506103a661091a366004615ccd565b611c5f565b34801561092b57600080fd5b506103a661093a366004615e1b565b611cf8565b34801561094b57600080fd5b506103a661095a366004615ccd565b611d2a565b34801561096b57600080fd5b506040805180820190915260038152622a2a2760e91b602082015261042b565b34801561099757600080fd5b506109ab6109a6366004615e50565b611d8b565b604080519283526020830191909152016103b2565b3480156109cc57600080fd5b506103a66109db366004615d24565b611fb8565b3480156109ec57600080fd5b506103db6109fb366004615bee565b612035565b348015610a0c57600080fd5b506103db610a1b366004615e83565b612275565b348015610a2c57600080fd5b50610a8d610a3b366004615bee565b600c60205260009081526040902080546001820154600283015460038401546004850154600586015460068701546007909701546001600160a01b039687169795969495939492939192918216911688565b604080516001600160a01b03998a16815260208101989098528701959095526060860193909352608085019190915260a0840152831660c083015290911660e0820152610100016103b2565b348015610ae557600080fd5b506104a9610af4366004615e9b565b6122a7565b348015610b0557600080fd5b50610b19610b14366004615ed2565b612313565b6040516103b2929190615f05565b348015610b3357600080fd5b50610b47610b42366004615ed2565b6125e0565b6040516103b29190615f7c565b348015610b6057600080fd5b50610b74610b6f366004615bee565b61289a565b6040516103b29190600060c0820190508251825260208301516001600160a01b0380821660208501528060408601511660408501525050606083015160608301526080830151608083015260a083015160a083015292915050565b348015610bdb57600080fd5b506103db610bea366004615c81565b612946565b610c02610bfd366004615fb8565b61299a565b6040516103b2919061602d565b348015610c1b57600080fd5b50610b19610c2a366004616091565b612ae7565b348015610c3b57600080fd5b506103a6610c4a366004615ccd565b612e92565b348015610c5b57600080fd5b506104a9610c6a366004616146565b612ef6565b348015610c7b57600080fd5b50610b47610c8a366004615ed2565b612f14565b348015610c9b57600080fd5b50610b47610caa366004615ed2565b613130565b348015610cbb57600080fd5b506103db610cca366004615ccd565b60016020526000908152604090205481565b348015610ce857600080fd5b5061042b610cf7366004615bee565b6132fd565b348015610d0857600080fd5b506103db610d17366004615ccd565b60076020526000908152604090205481565b348015610d3557600080fd5b506109ab610d443660046161f1565b613398565b348015610d5557600080fd5b506103db610d64366004615bee565b60086020526000908152604090205481565b348015610d8257600080fd5b50610b19610d91366004616091565b61377c565b348015610da257600080fd5b506103a6610db1366004616241565b6001600160a01b039182166000908152600f6020908152604080832093909416825291909152205460ff1690565b348015610deb57600080fd5b506103a6610dfa366004615ccd565b613b3b565b60006001600160e01b031982166380ac58cd60e01b1480610e3057506001600160e01b03198216635b5e139f60e01b145b80610e4b57506301ffc9a760e01b6001600160e01b03198316145b92915050565b336000908152600a602052604081205415610e6b57600080fd5b6000828152600660208181526040808420338552909201905290205480610ebf5760405162461bcd60e51b815260206004820152600360248201526223981b60e91b60448201526064015b60405180910390fd5b600083815260066020818152604080842033855290920190528120819055600354610ef59083606460dd9290921c601f16020490565b60008581526006602081815260408084206005546001600160a01b031685529092019052812080549293508392909190610f30908490616281565b90915550610f66905033610f448385616294565b6000878152600660205260409020600201546001600160a01b03169190613b72565b5090505b919050565b6000818152600c602052604090205481906001600160a01b0316331480610faf57506000818152600c60205260409020600601546001600160a01b031633145b610feb5760405162461bcd60e51b815260206004820152600d60248201526c1bdb9b1e48185c1c1c9bdd985b609a1b6044820152606401610eb6565b6000828152600c6020526040902060060180546001600160a01b0319166001600160a01b03851617905560405182906001600160a01b0385169033907f8c5be1e5ebec7d5bd14f71427d1e84f3dd0314c0f7b2291e5b200ac8c7c3b92590600090a4505050565b6005546000906001600160a01b031633146110955760405162461bcd60e51b815260206004820152600360248201526223981960e91b6044820152606401610eb6565b60008281526006602052604090206110ac90613c0c565b506001919050565b6005546000906001600160a01b031633146110f75760405162461bcd60e51b815260206004820152600360248201526223981960e91b6044820152606401610eb6565b60008281526006602052604090206110ac90613c6c565b6000828152600660205260408120600101546001600160a01b0316331461115d5760405162461bcd60e51b815260206004820152600360248201526211cc0d60ea1b6044820152606401610eb6565b60008381526006602052604090206111759083613cbb565b50600192915050565b6000818152600c602052604090205481906001600160a01b03163314806111be57506000818152600c60205260409020600601546001600160a01b031633145b6111fa5760405162461bcd60e51b815260206004820152600d60248201526c1bdb9b1e48185c1c1c9bdd985b609a1b6044820152606401610eb6565b6001600160a01b0384166000908152600d6020526040902061121c9083613cf3565b6001600160a01b0383166000908152600d6020526040902061123e9083613d3a565b6000828152600c602052604080822080546001600160a01b038088166001600160a01b03199283168117845560068401805484169055600790930180549092169091559151859391928816917fddf252ad1be2c89b69c2b068fc378daa952ba7f163c4a11628f55a4df523b3ef91a450505050565b6000828152600660205260408120600101546001600160a01b03163314806112e557506005546001600160a01b031633145b6113175760405162461bcd60e51b815260206004820152600360248201526247303560e81b6044820152606401610eb6565b600083815260066020908152604080832060010180546001600160a01b0319166001600160a01b0387169081179091558352600790915290206111759084613d3a565b6113bd60405180610100016040528060006001600160a01b03168152602001600081526020016000815260200160008152602001600081526020016000815260200160006001600160a01b0316815260200160006001600160a01b031681525090565b6000828152600c6020818152604080842080546001600160a01b03168652600181015486840152600281015491860191909152600381015460608601526004810154608086015294909252905260059091015460a082015290565b61143383838360405180602001604052806000815250612ef6565b505050565b6000818152600c60205260408120546001600160a01b031633148061147657506000828152600c60205260409020600701546001600160a01b031633145b801561149157506000828152600c6020526040902060020154155b6114c35760405162461bcd60e51b81526020600482015260036024820152624d303960e81b6044820152606401610eb6565b6000828152600c6020908152604080832060018101548085526006909352922090916114ef9190613d7f565b91506000611511836001600160801b0316600354613b6290919063ffffffff16565b905061151d81846162a7565b60008381526006602081815260408084206005546001600160a01b031685529092019052812080549295506001600160801b03841692909190611561908490616281565b9091555050600082815260066020526040902060020154611595906001600160a01b0316336001600160801b038616613b72565b60405184907fe5eb1255799fb22ca9d80c7be5ade81a40ee66578748386701667d3cc4c5e9b990600090a25050919050565b6005546000906001600160a01b0316331461160a5760405162461bcd60e51b815260206004820152600360248201526223981960e91b6044820152606401610eb6565b61161382613df7565b6116455760405162461bcd60e51b815260206004820152600360248201526247303360e81b6044820152606401610eb6565b50600355600190565b6000806009546000146116895760405162461bcd60e51b815260206004820152600360248201526247303160e81b6044820152606401610eb6565b600160095560408051610100810182526001600160801b038816815260006020808301829052828401829052606083018290528b825260068082528483206003808201546080870152905460a08601528c84528183529483209485015460c0850152918b905252905460e08201526117018187613e69565b9050600185151514801561171e575080516001600160801b031615155b1561173c57604051632af75bb760e11b815260040160405180910390fd5b60208082015160008a81526006909252604090912054611770916001600160801b031661271060e79290921c607f16020490565b915081816020015161178291906162a7565b9250611817816080015182604001516003546040518060400160405280896001600160a01b0316815260200160026000336001600160a01b03166001600160a01b0316815260200190815260200160002060009054906101000a90046001600160a01b03166001600160a01b0316815250600660008f81526020019081526020016000206141ae90949392919063ffffffff16565b60c08101516003546040805180820182526001600160a01b0380891682523360009081526002602090815284822054909216828401528d815260069091529190912061186993909290918691906141ae565b80516118a690339061187b908a6162a7565b60008c8152600660205260409020600201546001600160a01b031691906001600160801b0316614200565b6000888152600660205260409020600201546118d5906001600160a01b0316336001600160801b038616613b72565b87897fa79c43e220b5faf022716b06e757294b799a25f33d3c8b0121e614f7b5d988c433846060015161192986600001518d61191191906162a7565b60408801516001600160801b031660809190911b1790565b6001600160801b03881660808a901b17604080516001600160a01b0390951685526001600160801b0390931660208501529183015260608201526080015b60405180910390a35060006009559097909650945050505050565b6000806009546000146119bd5760405162461bcd60e51b815260206004820152600360248201526247303160e81b6044820152606401610eb6565b600160095560408051610100810182526001600160801b038816815260006020808301829052828401829052606083018290528b825260068082528483206003808201546080870152905460a08601528c84528183529483209485015460c0850152918b905252905460e0820152611a358187614315565b80519091506001600160801b031615611a6157604051632af75bb760e11b815260040160405180910390fd5b60208082015160008b81526006909252604090912054611a95916001600160801b031661271060e79290921c607f16020490565b9150818160200151611aa791906162a7565b60c0820151604080840151600354825180840184526001600160a01b03808b1682523360009081526002602090815286822054909216828401528f8152600690915293909320949750611afb9493926141ae565b60808101516003546040805180820182526001600160a01b0380891682523360009081526002602090815284822054909216828401528e8152600690915291909120611b4d93909290918691906141ae565b8051611b8a908690611b5f908a6162a7565b60008b8152600660205260409020600201546001600160a01b031691906001600160801b0316613b72565b600089815260066020526040902060020154611bb9906001600160a01b0316336001600160801b038616614200565b87897f3de590341c976ea6fce618ef4a768a15441201ad3ed7c9b438d82c3951de7ced33888560600151611c0e87600001518e611bf691906162a7565b60408901516001600160801b031660809190911b1790565b6001600160801b03891660808b901b17604080516001600160a01b0396871681529590941660208601526001600160801b03909216928401929092526060830191909152608082015260a001611967565b3360009081526001602052604081205415611ca15760405162461bcd60e51b8152602060048201526002602482015261553160f01b6044820152606401610eb6565b6001600080828254611cb39190616281565b9091555050600080543382526001602081815260408085209390935560029052912080546001600160a01b0319166001600160a01b0394909416939093179092555090565b600083815260066020526040812060020154611d1f906001600160a01b0316338486614597565b5060015b9392505050565b6005546000906001600160a01b03163314611d6d5760405162461bcd60e51b815260206004820152600360248201526223981960e91b6044820152606401610eb6565b506001600160a01b03166000908152600a6020526040812055600190565b60055460009081906001600160a01b03163314611dd05760405162461bcd60e51b815260206004820152600360248201526223981960e91b6044820152606401610eb6565b611dd9836146b6565b611e0b5760405162461bcd60e51b815260206004820152600360248201526226981960e91b6044820152606401610eb6565b611e286001600160a01b038616336001600160801b038716614200565b600160046000828254611e3b9190616281565b9091555050600454604080518082019091526001600160a01b0387168152336020820152600890600090611e6e906146cc565b815260208082019290925260409081016000908120939093556004805484526006909252808320600381018890558083018890556001600160ff1b03871681556002810180546001600160a01b038b166001600160a01b0319918216179091556001909101805490911633179055905482529020611eeb90613c0c565b600454336000908152600760205260409020611f0691613d3a565b6040805160608101825233815260045460208201526000918101829052611f2c9061471a565b90506001600b6000828254611f419190616281565b9091555050600b546000828152600e6020526040902055600454611fa590611f72611f6c8860801c90565b60801b90565b611f8c6000895b6001600160801b031660809190911b1790565b600b546000908152600c6020526040902092919061474d565b600454600b549250925050935093915050565b6000828152600c60205260408120546001600160a01b031633146120035760405162461bcd60e51b8152602060048201526002602482015261503160f01b6044820152606401610eb6565b506000828152600c6020526040902080546001600160a01b0383166001600160a01b0319909116179055600192915050565b6000818152600c60205260408120546001600160a01b031633148061207357506000828152600c60205260409020600701546001600160a01b031633145b801561208f57506000828152600c602052604090206002015415155b6120c15760405162461bcd60e51b81526020600482015260036024820152624d303960e81b6044820152606401610eb6565b6000828152600c60209081526040808320600281015460018201548186526006909452828520848652929094206120f99290916147b1565b9250600061213361212a61210d8660801c90565b600354906001600160801b0316606460dd9290921c601f16020490565b611f798661210d565b905061213f848261484d565b935061214b8160801c90565b60008381526006602081815260408084206005546001600160a01b031685529092019052812080546001600160801b03939093169290919061218e908490616281565b909155505060008381526006602081815260408084206005546001600160a01b031685529092019052812080546001600160801b03841692906121d2908490616281565b909155506122119050336121e68660801c90565b6000858152600660205260409020600201546001600160a01b031691906001600160801b0316613b72565b61224233855b6000868152600660205260409020600201546001600160a01b031691906001600160801b0316613b72565b60405185907fe5eb1255799fb22ca9d80c7be5ade81a40ee66578748386701667d3cc4c5e9b990600090a2505050919050565b6000600e8161229161228c368690038601866162c7565b61471a565b8152602001908152602001600020549050919050565b336000818152600f602090815260408083206001600160a01b03871680855290835292819020805460ff191686151590811790915590519081529192917f17307eab39ab6107e8899845ad3d59bd9653f200f220920489ca2b5937696c31910160405180910390a35050565b604080516080810182526000808252602082018190529181018290526060810191909152604080516080810182526000808252602082018190529181018290526060810191909152600954156123915760405162461bcd60e51b815260206004820152600360248201526247303160e81b6044820152606401610eb6565b60016009556000858152600c60205260409020600281015490546001600160a01b0316331480156123c157508015155b6123f35760405162461bcd60e51b81526020600482015260036024820152624d303960e81b6044820152606401610eb6565b6000868152600c6020908152604080832060018101548585526006808552838620600354855180870187526001600160a01b03808e168252338a5260028952878a205416818901528489529290965293909520909461245794919392918b91614877565b81516003549296509094506000916124a99161248791906001600160801b0316606460dd9290921c601f16020490565b8551600354611f79916001600160801b0316606460dd9290921c601f16020490565b90506124b58160801c90565b856020018181516124c69190616328565b6001600160801b031690525080846020018181516124e49190616328565b6001600160801b03169052506124fa8160801c90565b60008381526006602081815260408084206005546001600160a01b031685529092019052812080546001600160801b03939093169290919061253d908490616281565b909155505060008381526006602081815260408084206005546001600160a01b031685529092019052812080546001600160801b0384169290612581908490616281565b9091555050602085015185516125a791339161259d908b616328565b6121e691906162a7565b6125ce338560200151866000015187606001516125c49190616328565b61221791906162a7565b50506000600955509094909350915050565b6040805160808101825260008082526020820181905291810182905260608101919091526009541561263a5760405162461bcd60e51b815260206004820152600360248201526247303160e81b6044820152606401610eb6565b6001600955600084815260066020526040902054612657906146b6565b801561268d57506000848152600660205260409020600301546e010000000000000000000000000000906001600160801b031611155b80156126c657506000848152600660205260409020600301546e0100000000000000000000000000009060801c6001600160801b031611155b6126f85760405162461bcd60e51b815260206004820152600360248201526226981b60e91b6044820152606401610eb6565b600084815260066020526040902060020154612727906001600160a01b0316336001600160801b038616614200565b6003546040805180820182526001600160a01b038086168252336000908152600260209081528482205490921682840152888152600690915291909120612772929091869190614d6a565b90506000600e60006127a76040518060600160405280336001600160a01b03168152602001898152602001600081525061471a565b815260200190815260200160002054905080600003612824576001600b60008282546127d39190616281565b92505081905550600b54600e600061280e6040518060600160405280336001600160a01b031681526020018a8152602001600081525061471a565b815260208101919091526040016000205550600b545b604082015161286290869060801b602085015160608601516001600160801b031660809190911b176000858152600c6020526040902092919061474d565b60405181907fe5eb1255799fb22ca9d80c7be5ade81a40ee66578748386701667d3cc4c5e9b990600090a25060006009559392505050565b6128e56040518060c001604052806000815260200160006001600160a01b0316815260200160006001600160a01b031681526020016000815260200160008152602001600081525090565b60008281526006602081815260408084206003810154606087015260048101546080870152600581015460a08701528054865260018101546001600160a01b0390811687850152969094529190526002909101549092169181019190915290565b6001600160a01b03821660009081526007602052604081205482111561296d576000611d23565b506001600160a01b0391909116600090815260076020908152604080832093835260019093019052205490565b60608167ffffffffffffffff8111156129b5576129b56160d7565b6040519080825280602002602001820160405280156129e857816020015b60608152602001906001900390816129d35790505b50905060005b82811015612ae05760008030868685818110612a0c57612a0c616348565b9050602002810190612a1e919061635e565b604051612a2c9291906163ac565b600060405180830381855af49150503d8060008114612a67576040519150601f19603f3d011682016040523d82523d6000602084013e612a6c565b606091505b509150915081612ab857604481511015612a8557600080fd5b60048101905080806020019051810190612a9f91906163bc565b60405162461bcd60e51b8152600401610eb69190615c57565b80848481518110612acb57612acb616348565b602090810291909101015250506001016129ee565b5092915050565b60408051608081018252600080825260208201819052918101829052606081019190915260408051608081018252600080825260208201819052918101829052606081019190915260095415612b655760405162461bcd60e51b815260206004820152600360248201526247303160e81b6044820152606401610eb6565b60016009819055506000600e6000612b9f6040518060600160405280336001600160a01b031681526020018b81526020018a81525061471a565b8152602001908152602001600020549050600081118015612bd657506000818152600c60205260409020546001600160a01b031633145b612c085760405162461bcd60e51b8152602060048201526003602482015262134c0d60ea1b6044820152606401610eb6565b612cb360066000888152602001908152602001600020600c6000600e6000612c526040518060600160405280336001600160a01b031681526020018f81526020018e81525061471a565b815260208082019290925260409081016000908120548452838301949094529182018320600354835180850185526001600160a01b03808d168252338752600285528587205416818501528e86526006909352929093209392918a91614877565b8151600354929550909350600091612d0591612ce391906001600160801b0316606460dd9290921c601f16020490565b8451600354611f79916001600160801b0316606460dd9290921c601f16020490565b9050612d118160801c90565b84602001818151612d229190616328565b6001600160801b03169052508083602001818151612d409190616328565b6001600160801b0316905250612d568160801c90565b60008981526006602081815260408084206005546001600160a01b031685529092019052812080546001600160801b039390931692909190612d99908490616281565b909155505060008781526006602081815260408084206005546001600160a01b031685529092019052812080546001600160801b0384169290612ddd908490616281565b909155505060208401518451612e03913391612df9908a616328565b611b5f91906162a7565b612e5533846020015185600001518660600151612e209190616328565b612e2a91906162a7565b60008a8152600660205260409020600201546001600160a01b031691906001600160801b0316613b72565b60405182907fe5eb1255799fb22ca9d80c7be5ade81a40ee66578748386701667d3cc4c5e9b990600090a250506000600955909590945092505050565b6005546000906001600160a01b03163314612ed55760405162461bcd60e51b815260206004820152600360248201526223981960e91b6044820152606401610eb6565b506001600160a01b03166000908152600a6020526040902060019081905590565b612f0184848461117e565b612f0e3385858585614f14565b50505050565b60408051608081018252600080825260208201819052918101829052606081019190915260095415612f6e5760405162461bcd60e51b815260206004820152600360248201526247303160e81b6044820152606401610eb6565b600160095560408051606081018252338152602081018690526000918101829052600e908290612f9d9061471a565b81526020808201929092526040908101600090812054808252600c90935220549091506001600160a01b03163314612ffd5760405162461bcd60e51b81526020600482015260036024820152624d303360e81b6044820152606401610eb6565b6000818152600c60209081526040808320600354825180840184526001600160a01b03808a168252338752600286528487205416818601528a865260069094529190932087936130539391929091859190615036565b805160035491945060009161307b916001600160801b0316606460dd9290921c601f16020490565b60008881526006602081815260408084206005546001600160a01b031685529092019052812080549293506001600160801b038416929091906130bf908490616281565b909155505060208401516130d4908290616328565b6001600160801b03166020850181905284516130f6913391612e20908a616328565b60405183907fe5eb1255799fb22ca9d80c7be5ade81a40ee66578748386701667d3cc4c5e9b990600090a250506000600955509392505050565b6040805160808101825260008082526020820181905291810182905260608101919091526009541561318a5760405162461bcd60e51b815260206004820152600360248201526247303160e81b6044820152606401610eb6565b600160098190556000858152600c602052604090209081015490546001600160a01b0316331480156131cb57506000858152600c6020526040902060020154155b6131fd5760405162461bcd60e51b81526020600482015260036024820152624d303560e81b6044820152606401610eb6565b6000858152600c60209081526040808320600354825180840184526001600160a01b03808a1682523387526002865284872054168186015286865260069094529190932061325093909290918891615036565b8051600354919350600091613278916001600160801b0316606460dd9290921c601f16020490565b9050808360200181815161328c9190616328565b6001600160801b0390811690915260008481526006602081815260408084206005546001600160a01b031685529092019052812080549285169350916132d3908490616281565b9091555050602083015183516132ef91339161259d9089616328565b505060006009559392505050565b6000818152600c602052604090205460609082906001600160a01b031633146133685760405162461bcd60e51b815260206004820152600a60248201527f6f6e6c79206f776e6572000000000000000000000000000000000000000000006044820152606401610eb6565b613371836152a4565b604051602001613381919061642a565b604051602081830303815290604052915050919050565b6000806009546000146133d35760405162461bcd60e51b815260206004820152600360248201526247303160e81b6044820152606401610eb6565b60016009556000878152600660205260409020546133f0906146b6565b6134225760405162461bcd60e51b815260206004820152600360248201526226981960e91b6044820152606401610eb6565b60006134536040518060400160405280886001600160a01b03168152602001336001600160a01b03168152506146cc565b600081815260086020526040902054909150156134985760405162461bcd60e51b81526020600482015260036024820152624d303160e81b6044820152606401610eb6565b6134c0336134a68960801c90565b6001600160a01b03891691906001600160801b0316614200565b6000888152600660205260409020600201546134ef906001600160a01b0316336001600160801b038a16614200565b60008881526006602052604081206003015461350b9089615344565b90506001600460008282546135209190616281565b909155505060045460008381526008602090815260408083208490553383526007909152902061354f91613d3a565b6135bc61356082611f798b60801c90565b60048054600090815260066020526040902060038101839055908101919091556001600160ff1b03881681556002810180546001600160a01b038b166001600160a01b0319918216179091556001909101805490911633179055565b613605886003546040805180820182526001600160a01b03808b1682523360009081526002602090815284822054909216828401528f8152600690915291909120929190614d6a565b5060006136366040518060600160405280336001600160a01b0316815260200160045481526020018c81525061471a565b90506001600b600082825461364b9190616281565b9091555050600b546000828152600e6020908152604091829020929092558051610100810182523381526004549281019290925281018b905260608101608084901b81526020016136a16000611f798d60801c90565b81526020016136b160008c611f79565b8152600060208083018290526040928301829052600b80548352600c8252838320855181546001600160a01b03199081166001600160a01b03928316178355878501516001840155878701516002840155606088015160038401556080880151600484015560a0880151600584015560c0880151600684018054831691841691909117905560e090970151600790920180549097169116179094559254338252600d9093522061376091613d3a565b5050600454600b54600060095590999098509650505050505050565b604080516080810182526000808252602082018190529181018290526060810191909152604080516080810182526000808252602082018190529181018290526060810191909152600954156137fa5760405162461bcd60e51b815260206004820152600360248201526247303160e81b6044820152606401610eb6565b6001600955600085815260066020526040902054613817906146b6565b801561384c57506000868152600660205260409020600301546d0100000000000000000000000000906001600160801b031611155b801561388457506000868152600660205260409020600301546d01000000000000000000000000009060801c6001600160801b031611155b6138b65760405162461bcd60e51b815260206004820152600360248201526226981960e91b6044820152606401610eb6565b6003546040805180820182526001600160a01b0380871682523360009081526002602090815284822054909216828401528a8152600690915291909120613901929091879190614d6a565b60408082015160008881526006602052919091206003015491935061392691906153be565b6001600160801b0316606082018190526003546040805180820182526001600160a01b0380881682523360009081526002602090815284822054909216828401528a81526006909152919091206139809390929091614d6a565b6000878152600660205260409020600201549091506139b2906001600160a01b0316336001600160801b038716614200565b6139f533826060015183600001516139ca9190616328565b6000888152600660205260409020600201546001600160a01b031691906001600160801b0316614200565b6000600e6000613a276040518060600160405280336001600160a01b031681526020018b81526020018a81525061471a565b815260200190815260200160002054905080600003613aa3576001600b6000828254613a539190616281565b92505081905550600b54600e6000613a8d6040518060600160405280336001600160a01b031681526020018c81526020018b81525061471a565b815260208101919091526040016000205550600b545b6040830151613aff908890889060801b602087015160608801516001600160801b031660809190911b17602087015160608801516001600160801b031660809190911b176000878152600c602052604090209493929190615408565b60405181907fe5eb1255799fb22ca9d80c7be5ade81a40ee66578748386701667d3cc4c5e9b990600090a2506000600955909590945092505050565b6001600160a01b0381166000908152600a60205260408120546001146110ac576000610e4b565b606460dd9290921c601f16020490565b60006001600160a01b038416613bb15760008060008085875af1905080613bac57604051633d2cec6f60e21b815260040160405180910390fd5b612f0e565b60405163a9059cbb60e01b6000528360045282602452602060006044600080895af13d15601f3d1160016000511416171691506000606052806040525080612f0e57604051633c9fd93960e21b815260040160405180910390fd5b8054613c17906146b6565b15613c4d5760405162461bcd60e51b8152600401610eb6906020808252600490820152634730303760e01b604082015260600190565b80546001600160ff1b0316613c6681600160ff1b616281565b90915550565b8054613c77906146b6565b613cac5760405162461bcd60e51b8152600401610eb69060208082526004908201526308e6060760e31b604082015260600190565b80546001600160ff1b03169055565b81547f0fffffffffffffffffffffffffffffffffffffffffffffffffffffffffffffff90911690613c66908290600f60fc1b16616281565b815460009081526001808401602081815260408085205486865260028801835281862054865292909152832055835490918491613d31908490616294565b90915550505050565b6001826000016000828254613d4f9190616281565b90915550508154600090815260018301602090815260408083208490558454938352600290940190529190912055565b6000613d8f826004015460801c90565b613dbe613d9d846004015490565b613db8613dae876005015460801c90565b6004880154611f79565b90615344565b613dc891906162a7565b6005840154909150613de8906001600160801b038316615482565b615482565b6005840155610e4b82826154af565b60008060e283901c603f1660e884901c603f1660ee85901c603f1660f486901c603f16613e248760fa1c90565b613e2e9190616479565b613e389190616479565b613e429190616479565b613e4c9190616479565b90508060ff16606414613e60576000611d23565b60019392505050565b6040805161010081018252600080825260208201819052918101829052606081018290526080810182905260a0810182905260c0810182905260e0810191909152825160a08401516000918291613ed4916001600160801b031661271060e09290921c607f16020490565b6001600160801b03166040860181905285518690613ef39083906162a7565b6001600160801b03169052505b84516001600160801b031615801590613f275750613f2785608001518660c00151866154ce565b1561411857613f48613f3d8660c0015160801c90565b60e087015190615659565b6001600160801b0316613f6d613f62876080015160801c90565b60a088015190615659565b6001600160801b03161015613f9d57613f98613f8d866080015160801c90565b60a087015190615659565b613fae565b613fae613f3d8660c0015160801c90565b6080860151909250613fc090836153be565b9050806001600160801b031685600001516001600160801b03161115614074578085600001818151613ff291906162a7565b6001600160801b031690525060c085015161400d90836153be565b8560200181815161401e9190616328565b6001600160801b0390811690915260808781015161404993509184169085901b17615689565b615689565b608086015260c085015161406a9061406584611f7983826153be565b6156ac565b60c08601526140f5565b8451608086015161408491615344565b60c086015190925061409690836153be565b856020018181516140a79190616328565b6001600160801b0390811690915260808781015188516140cf94509092169085901b17615689565b608086015260c08501516140eb9061406584611f7983826153be565b60c0860152600085525b81856060018181516141079190616328565b6001600160801b0316905250613f00565b84516001600160801b0316156141a557845160a086015161414c916001600160801b0316606460f49290921c603f16020490565b8560400181815161415d91906162a7565b6001600160801b03908116909152865160a088015161418993509116606460f49290921c603f16020490565b85518690614198908390616328565b6001600160801b03169052505b50929392505050565b6003850184905560058501546141d990613de3606460fa86901c6001600160801b0388160204611f6c565b60058601556001600160801b038316156141f9576141f9858484846156dc565b5050505050565b604080516001600160a01b038481166024830152306044830152606480830185905283518084039091018152608490920183526020820180517bffffffffffffffffffffffffffffffffffffffffffffffffffffffff166323b872dd60e01b17905291516000928392908716916142779190616492565b6000604051808303816000865af19150503d80600081146142b4576040519150601f19603f3d011682016040523d82523d6000602084013e6142b9565b606091505b50915091508180156142e35750805115806142e35750808060200190518101906142e391906164ae565b6141f95760405162461bcd60e51b815260206004820152600360248201526229aa2360e91b6044820152606401610eb6565b6040805161010081018252600080825260208201819052918101829052606081018290526080810182905260a0810182905260c0810182905260e0810182905290805b84516001600160801b03161580159061437f575061437f85608001518660c00151866154ce565b156141a557614395613f3d8660c0015160801c90565b6001600160801b03166143af613f62876080015160801c90565b6001600160801b031610156143d4576143cf613f8d866080015160801c90565b6143e5565b6143e5613f3d8660c0015160801c90565b60c08601519092506143f790836153be565b9050806001600160801b031685600001516001600160801b031611156144a157808560000181815161442991906162a7565b6001600160801b0316905250608085015161444490836153be565b856020018181516144559190616328565b6001600160801b0390811690915260c087015161447b9250908316608085901b176156ac565b60c086015260808501516144979061404484611f7983826153be565b6080860152614522565b845160c08601516144b191615344565b60808601519092506144c390836153be565b856020018181516144d49190616328565b6001600160801b0390811690915260c087015187516144fc9350909116608085901b176156ac565b60c086015260808501516145189061404484611f7983826153be565b6080860152600085525b84516001600160801b03161561457457845160a0860151614556916001600160801b0316606460f49290921c603f16020490565b8560400181815161456791906162a7565b6001600160801b03169052505b81856060018181516145869190616328565b6001600160801b0316905250614358565b604080516001600160a01b0385811660248301528481166044830152606480830185905283518084039091018152608490920183526020820180517bffffffffffffffffffffffffffffffffffffffffffffffffffffffff166323b872dd60e01b17905291516000928392908816916146109190616492565b6000604051808303816000865af19150503d806000811461464d576040519150601f19603f3d011682016040523d82523d6000602084013e614652565b606091505b509150915081801561467c57508051158061467c57508080602001905181019061467c91906164ae565b6146ae5760405162461bcd60e51b815260206004820152600360248201526229aa2360e91b6044820152606401610eb6565b505050505050565b600060ff82901c60018114613e60576000611d23565b6000816040516020016146fd919081516001600160a01b039081168252602092830151169181019190915260400190565b604051602081830303815290604052805190602001209050919050565b6040805182516001600160a01b0316602080830191909152830151818301529082015160608201526000906080016146fd565b60048401546001600160801b03166000036147815783546001600160a01b0319163317845560018401839055600060028501555b61478f846004015482615482565b600485015560038401546147a39083615482565b846003018190555050505050565b600061480f6147c4836004015460801c90565b6147ed6147d2856004015490565b613db86147e3896005015460801c90565b60048a0154611f79565b6147f791906162a7565b6005840154614805816147d2565b611f7991906162a7565b90506148288460050154613de36000611f798560801c90565b6005850181905561483e90613de3600084611f79565b6005850155611d23828261590e565b6000611d2361485c8360801c90565b6148668560801c90565b61487091906162a7565b8385614805565b60408051608081018252600080825260208201819052918101829052606081019190915260408051608081018252600080825260208201819052918101829052606081019190915260006148e086613db86148d68a6003015460801c90565b60048b0154611f79565b9050604051806080016040528061490c88613db86149028e6005015460801c90565b60048f0154611f79565b6001600160801b0316815260200161493988613db861492f8c6004015460801c90565b60048d0154611f79565b6001600160801b03168152602001826001600160801b03168152602001876001600160801b0316815250925061497e6149768a6003015460801c90565b8a5490615946565b6001600160801b031683604001516001600160801b03161080156149c057506149ab6149768a6003015490565b6001600160801b0316866001600160801b0316105b6149f55760405162461bcd60e51b8152600401610eb6906020808252600490820152634730313160e01b604082015260600190565b6040518060800160405280614a2283613db8614a158d6005015460801c90565b60048e015460801c611f79565b6001600160801b03168152602001614a5283613db8614a458c6005015460801c90565b60038d015460801c611f79565b6001600160801b03168152602001826001600160801b03168152602001614a8183613db8614a458c6005015490565b6001600160801b03168152509150614aa5614a9d896003015490565b895490615946565b6001600160801b031682606001516001600160801b0316108015614aea5750614ad5614a9d896003015460801c90565b6001600160801b0316816001600160801b0316105b614b1f5760405162461bcd60e51b8152600401610eb6906020808252600490820152632398189960e11b604082015260600190565b614b4e8960030154614b498560400151866060015160809190911b6001600160801b039091161790565b61484d565b60038a0155600489015460408401516060850151614b7b929160801b6001600160801b039091161761484d565b60048a0155600589015483516020850151614ba5929160801b6001600160801b039091161761484d565b60058a015560208301518351614bbb91906162a7565b6001600160801b03908116845260608401518a54614be79290911661271060ee9290921c607f16020490565b6001600160801b03166020840181905260058a0154614c1491613de390606460fa8a901c90910204611f6c565b60058a015560208301516001600160801b031615614c3c57614c3c89846020015187876156dc565b614c668860030154614b498460400151856060015160809190911b6001600160801b039091161790565b6003890155600488015460408301516060840151614c93929160801b6001600160801b039091161761484d565b6004890155600588015482516020840151614cbd929160801b6001600160801b039091161761484d565b600589015560208201518251614cd391906162a7565b6001600160801b03908116835260608301518954614cff9290911661271060ee9290921c607f16020490565b6001600160801b0316602083018190526005890154614d2c91613de390606460fa8a901c90910204611f6c565b6005890155614d3b878761596b565b60208201516001600160801b031615614d5e57614d5e88836020015187876156dc565b50965096945050505050565b6040805160808101825260008082526020820181905291810182905260608101919091528454614daf906001600160801b03861661271060f59290921c607f16020490565b614db990856162a7565b6001600160801b0316606082018190526003860154614dd791615344565b6001600160801b0316604082015260608101516005860154614e059190613db89060801c6004890154611f79565b6001600160801b031660208201526060810151614e3e90614e2690866162a7565b84906001600160801b0316606460fa9290921c020490565b6001600160801b031680825260058601546020830151614e7d92613de391614e6591616328565b60208501516001600160801b031660809190911b1790565b6005860155600385015460408201516060830151614eaa929160801b6001600160801b0390911617615482565b6003860155600485015460408201516060830151614ed7929160801b6001600160801b0390911617615482565b60048601556060810151600090614eee90866162a7565b90506001600160801b03811615614f0b57614f0b868286866156dc565b50949350505050565b6001600160a01b0383163b156141f957604051630a85bd0160e11b81526001600160a01b0384169063150b7a0290614f569088908890879087906004016164cb565b6020604051808303816000875af1925050508015614f91575060408051601f3d908101601f19168201909252614f8e91810190616507565b60015b614ffa573d808015614fbf576040519150601f19603f3d011682016040523d82523d6000602084013e614fc4565b606091505b508051600003614ff257604051633250574960e11b81526001600160a01b0385166004820152602401610eb6565b805181602001fd5b6001600160e01b03198116630a85bd0160e11b146146ae57604051633250574960e11b81526001600160a01b0385166004820152602401610eb6565b604080516080810182526000808252602082018190529181018290526060810191909152604051806080016040528061508486613db861507a8b6005015460801c90565b60048c0154611f79565b6001600160801b031681526020016150a786613db86148d68a6004015460801c90565b6001600160801b031681526020016150ca86613db86148d68a6003015460801c90565b6001600160801b03168152602001856001600160801b031681525090506151006150f8876003015460801c90565b875490615946565b6001600160801b031681604001516001600160801b0316108015615142575061512d6150f8876003015490565b6001600160801b0316846001600160801b0316105b6151775760405162461bcd60e51b8152600401610eb6906020808252600490820152634730303960e01b604082015260600190565b6151a18660030154614b498360400151846060015160809190911b6001600160801b039091161790565b60038701556004860154604082015160608301516151ce929160801b6001600160801b039091161761484d565b60048701556005860154815160208301516151f8929160801b6001600160801b039091161761484d565b60058701556152078585615a73565b6020810151815161521891906162a7565b6001600160801b039081168252606082015187546152449290911661271060ee9290921c607f16020490565b6001600160801b0316602082018190521561529b576152848660050154613de3611f6c84602001516001600160801b0316876156cf90919063ffffffff16565b6005870155602081015161529b90879085856156dc565b95945050505050565b606060006152b183615ad6565b600101905060008167ffffffffffffffff8111156152d1576152d16160d7565b6040519080825280601f01601f1916602001820160405280156152fb576020820181803683370190505b5090508181016020015b600019017f3031323334353637383961626364656600000000000000000000000000000000600a86061a8153600a850494508461530557509392505050565b6000826001600160801b031660000361535f57506000610e4b565b6000836001600160801b0316836001600160801b031661537f8660801c90565b6001600160801b0316615392919061653a565b61539c9190616551565b90506001600160801b038111156153b45760006153b6565b805b949350505050565b60006153ca8360801c90565b6001600160801b03166000036153e257506000610e4b565b60006153ee8460801c90565b6001600160801b0316836001600160801b031661537f8690565b60048601546001600160801b031660000361543c5785546001600160a01b0319163317865560018601859055600286018490555b61544a866003015484615482565b6003870155600486015461545e9083615482565b600487015560058601546154729082615482565b8660050181905550505050505050565b6000611d236154918360801c90565b61549b8560801c90565b6154a59190616328565b611f798486616328565b60048201546154c290608083901b615482565b82600401819055505050565b6000836001600160801b031615806154f657506154eb8360801c90565b6001600160801b0316155b8061551157506155068260801c90565b6001600160801b0316155b1561551e57506000611d23565b600019828461552d8760801c90565b6155379190616565565b6155419190616565565b6001600160801b031611156155835760405162461bcd60e51b81526020600482015260086024820152676f766572666c6f7760c01b6044820152606401610eb6565b6000196155908360801c90565b61559a8560801c90565b6155a49087616565565b6155ae9190616565565b6001600160801b031611156155f05760405162461bcd60e51b81526020600482015260086024820152676f766572666c6f7760c01b6044820152606401610eb6565b6155fa8260801c90565b6156048460801c90565b61560e9086616565565b6156189190616565565b6001600160801b0316828461562d8760801c90565b6156379190616565565b6156419190616565565b6001600160801b031610611d1f576000949350505050565b60006103ff60d684901c168082036156745782915050610e4b565b61567f816040616565565b6153b69084616590565b6000611d236156988360801c90565b6156a28560801c90565b6154a591906162a7565b6000611d236156bb8360801c90565b6156c58560801c90565b6148709190616328565b606460fa9290921c020490565b60208101516001600160a01b03166157d35760006064603f60e285901c166001600160801b03861602046064603f60f486901c166001600160801b03871602046157269190616328565b60018601546001600160a01b03166000908152600687016020526040812080549293506001600160801b03841692909190615762908490616281565b9091555081905061578560646001600160801b03871660fa87901c0204866162a7565b61578f91906162a7565b82516001600160a01b03166000908152600687016020526040812080546001600160801b0393909316929091906157c7908490616281565b90915550612f0e915050565b60018401546001600160a01b031660009081526006850160205260408120805460646001600160801b0387811660f488901c603f16029190910416929061581b908490616281565b90915550506064603f60e884901c166001600160801b03851602046001600160801b031684600601600083602001516001600160a01b03166001600160a01b0316815260200190815260200160002060008282546158799190616281565b90915550503360009081526006850160205260408120805460646001600160801b0387811660e288901c603f1602919091041692906158b9908490616281565b909155505080516001600160a01b031660009081526006850160205260408120805460646001600160801b0387811660ee88901c603f160291909104169290615903908490616281565b909155505050505050565b6159238260040154613de3611f6c8460801c90565b6004830155600582015461593a90613de383611f6c565b82600501819055505050565b60006103ff60cc84901c168082036159615782915050610e4b565b6153b68184616590565b60006159bd6159ae615981856003015460801c90565b6001600160801b0316846001600160801b031661599f876004015490565b6001600160801b031691020490565b6004850154611f799085615344565b90506000615a1f6159f36159d5866005015460801c90565b6001600160801b0316856001600160801b031661599f886004015490565b611f79615a01876005015490565b6001600160801b0316866001600160801b031661599f896004015490565b9050615a448460040154614b49615a338590565b60801b6001600160801b0387161790565b60048501556005840154615a58908261484d565b600585015560038401546147a390614b49611f6c8560801c90565b6000615a896159ae615981856003015460801c90565b9050615aae8360040154614b49615a9d8490565b60801b6001600160801b0386161790565b60048401556003830154615ac990614b49611f6c8460801c90565b8360030181905550505050565b6000807a184f03e93ff9f4daa797ed6e38ed64bf6a1f0100000000000000008310615b1f577a184f03e93ff9f4daa797ed6e38ed64bf6a1f010000000000000000830492506040015b6d04ee2d6d415b85acef81000000008310615b4b576d04ee2d6d415b85acef8100000000830492506020015b662386f26fc100008310615b6957662386f26fc10000830492506010015b6305f5e1008310615b81576305f5e100830492506008015b6127108310615b9557612710830492506004015b60648310615ba7576064830492506002015b600a8310610e4b5760010192915050565b6001600160e01b031981168114615bce57600080fd5b50565b600060208284031215615be357600080fd5b81356153b481615bb8565b600060208284031215615c0057600080fd5b5035919050565b60005b83811015615c22578181015183820152602001615c0a565b50506000910152565b60008151808452615c43816020860160208601615c07565b601f01601f19169290920160200192915050565b602081526000611d236020830184615c2b565b80356001600160a01b0381168114610f6a57600080fd5b60008060408385031215615c9457600080fd5b615c9d83615c6a565b946020939093013593505050565b60008060408385031215615cbe57600080fd5b50508035926020909101359150565b600060208284031215615cdf57600080fd5b611d2382615c6a565b600080600060608486031215615cfd57600080fd5b615d0684615c6a565b9250615d1460208501615c6a565b9150604084013590509250925092565b60008060408385031215615d3757600080fd5b82359150615d4760208401615c6a565b90509250929050565b80356001600160801b0381168114610f6a57600080fd5b8015158114615bce57600080fd5b60008060008060008060c08789031215615d8e57600080fd5b8635955060208701359450615da560408801615d50565b9350606087013592506080870135615dbc81615d67565b9150615dca60a08801615c6a565b90509295509295509295565b60008060008060008060c08789031215615def57600080fd5b8635955060208701359450615e0660408801615d50565b935060608701359250615dbc60808801615c6a565b600080600060608486031215615e3057600080fd5b8335925060208401359150615e4760408501615c6a565b90509250925092565b600080600060608486031215615e6557600080fd5b615e6e84615c6a565b95602085013595506040909401359392505050565b600060608284031215615e9557600080fd5b50919050565b60008060408385031215615eae57600080fd5b615eb783615c6a565b91506020830135615ec781615d67565b809150509250929050565b600080600060608486031215615ee757600080fd5b83359250615ef760208501615d50565b9150615e4760408501615c6a565b6101008101615f42828580516001600160801b03908116835260208083015182169084015260408083015182169084015260609182015116910152565b82516001600160801b0390811660808401526020840151811660a08401526040840151811660c084015260608401511660e0830152611d23565b60808101610e4b828480516001600160801b03908116835260208083015182169084015260408083015182169084015260609182015116910152565b60008060208385031215615fcb57600080fd5b823567ffffffffffffffff80821115615fe357600080fd5b818501915085601f830112615ff757600080fd5b81358181111561600657600080fd5b8660208260051b850101111561601b57600080fd5b60209290920196919550909350505050565b600060208083016020845280855180835260408601915060408160051b87010192506020870160005b8281101561608457603f19888603018452616072858351615c2b565b94509285019290850190600101616056565b5092979650505050505050565b600080600080608085870312156160a757600080fd5b84359350602085013592506160be60408601615d50565b91506160cc60608601615c6a565b905092959194509250565b634e487b7160e01b600052604160045260246000fd5b604051601f8201601f1916810167ffffffffffffffff81118282101715616116576161166160d7565b604052919050565b600067ffffffffffffffff821115616138576161386160d7565b50601f01601f191660200190565b6000806000806080858703121561615c57600080fd5b61616585615c6a565b935061617360208601615c6a565b925060408501359150606085013567ffffffffffffffff81111561619657600080fd5b8501601f810187136161a757600080fd5b80356161ba6161b58261611e565b6160ed565b8181528860208385010111156161cf57600080fd5b8160208401602083013760006020838301015280935050505092959194509250565b600080600080600060a0868803121561620957600080fd5b853594506020860135935061622060408701615c6a565b92506060860135915061623560808701615c6a565b90509295509295909350565b6000806040838503121561625457600080fd5b61625d83615c6a565b9150615d4760208401615c6a565b634e487b7160e01b600052601160045260246000fd5b80820180821115610e4b57610e4b61626b565b81810381811115610e4b57610e4b61626b565b6001600160801b03828116828216039080821115612ae057612ae061626b565b6000606082840312156162d957600080fd5b6040516060810181811067ffffffffffffffff821117156162fc576162fc6160d7565b60405261630883615c6a565b815260208301356020820152604083013560408201528091505092915050565b6001600160801b03818116838216019080821115612ae057612ae061626b565b634e487b7160e01b600052603260045260246000fd5b6000808335601e1984360301811261637557600080fd5b83018035915067ffffffffffffffff82111561639057600080fd5b6020019150368190038213156163a557600080fd5b9250929050565b8183823760009101908152919050565b6000602082840312156163ce57600080fd5b815167ffffffffffffffff8111156163e557600080fd5b8201601f810184136163f657600080fd5b80516164046161b58261611e565b81815285602083850101111561641957600080fd5b61529b826020830160208601615c07565b7f687474703a2f2f7777772e74742d737761702e636f6d2f6e66743732313f69648152603d60f81b60208201526000825161646c816021850160208701615c07565b9190910160210192915050565b60ff8181168382160190811115610e4b57610e4b61626b565b600082516164a4818460208701615c07565b9190910192915050565b6000602082840312156164c057600080fd5b81516153b481615d67565b60006001600160a01b038087168352808616602084015250836040830152608060608301526164fd6080830184615c2b565b9695505050505050565b60006020828403121561651957600080fd5b81516153b481615bb8565b634e487b7160e01b600052601260045260246000fd5b8082028115828204841417610e4b57610e4b61626b565b60008261656057616560616524565b500490565b6001600160801b038181168382160280821691908281146165885761658861626b565b505092915050565b60006001600160801b03808416806165aa576165aa616524565b9216919091049291505056fea2646970667358221220c7313880e830ec562e24a98ec82ddacce615feddb444ab34ebba8edf3c8c972f64736f6c63430008180033","linkReferences":{}},"methodIdentifiers":{"addbanlist(address)":"b153b920","addreferer(address)":"8bdde5d3","approve(address,uint256)":"095ea7b3","balanceOf(address)":"70a08231","banlist(address)":"2973ada7","buyGood(uint256,uint256,uint128,uint256,bool,address)":"578496ab","buyGoodForPay(uint256,uint256,uint128,uint256,address,address)":"7b43e738","changeGoodOwner(uint256,address)":"2a7c5a91","changeProofOwner(uint256,address)":"99e23fc2","check_banlist(address)":"fc5f8dd0","collectNormalProofFee(uint256)":"9c7b9140","collectProtocolFee(uint256)":"0292eb4a","collectValueProofFee(uint256)":"42ff43b1","customerno(address)":"c3a2b159","customernum()":"40430a49","disinvestNormalGood(uint256,uint256,uint128,address)":"ad864a79","disinvestNormalProof(uint256,uint128,address)":"a4500ff3","disinvestValueGood(uint256,uint128,address)":"c138f7a9","disinvestValueProof(uint256,uint128,address)":"c16b80fe","getApproved(uint256)":"081812fc","getGoodIdByAddress(address,uint256)":"a92a1bc9","getGoodState(uint256)":"a6f6a980","getGoodsFee(uint256,address)":"56b7d94c","getProofId((address,uint256,uint256))":"9caa637b","getProofState(uint256)":"3f117740","goodnum()":"6ab107f9","goodseq(bytes32)":"d756d4b7","initMetaGood(address,uint256,uint256)":"97924ead","initNormalGood(uint256,uint256,address,uint256,address)":"cbb2aabc","investNormalGood(uint256,uint256,uint128,address)":"e1f685e8","investValueGood(uint256,uint128,address)":"a64d6c9c","isApprovedForAll(address,address)":"e985e9c5","marketconfig()":"402f5ab5","marketcreator()":"3d995173","multicall(bytes[])":"ac9650d8","name()":"06fdde03","ownerOf(uint256)":"6352211e","ownergoods(address)":"cb9a748d","ownerproofs(address)":"45de65f0","payGood(uint256,uint256,address)":"920acbb8","proofs(uint256)":"9ddaf5aa","proofseq(bytes32)":"430b9be7","relations(address)":"161ce5cb","removebanlist(address)":"9551177a","safeTransferFrom(address,address,uint256)":"42842e0e","safeTransferFrom(address,address,uint256,bytes)":"b88d4fde","setApprovalForAll(address,bool)":"a22cb465","setMarketConfig(uint256)":"45818e4c","supportsInterface(bytes4)":"01ffc9a7","symbol()":"95d89b41","tokenByIndex(uint256)":"4f6ccce7","tokenOfOwnerByIndex(address,uint256)":"2f745c59","tokenURI(uint256)":"c87b56dd","totalSupply()":"18160ddd","transferFrom(address,address,uint256)":"23b872dd","updateGoodConfig(uint256,uint256)":"144aeb83","updatetoNormalGood(uint256)":"14484e10","updatetoValueGood(uint256)":"0a25dcff"},"id":1}